:020000040800F2
:100000000000052031F203086571000867710008DF
:10001000697100086B7100086D7100080000000034
:100020000000000000000000000000006F710008E8
:1000300071710008000000007371000875710008FC
:1000400081F2030881F2030881F2030881F20308B8
:1000500081F2030881F203087D71000881F2030830
:100060008971000881F2030881F2030881F2030814
:1000700081F2030881F2030881F2030881F2030888
:1000800081F2030881F2030881F2030881F2030878
:1000900081F2030881F2030881F2030881F2030868
:1000A00081F2030881F2030881F2030881F2030858
:1000B00081F2030881F2030881F2030881F2030848
:1000C00081F2030881F2030881F2030881F2030838
:1000D00081F2030881F2030881F2030881F2030828
:1000E0009571000881F2030881F2030881F2030888
:1000F00081F2030881F2030881F2030881F2030808
:1001000081F2030881F2030881F2030881F20308F7
:1001100081F2030881F2030881F2030881F20308E7
:10012000C971000881F2030881F2030881F2030813
:10013000D971000881F2030881F2030881F20308F3
:1001400081F2030881F2030881F2030881F20308B7
:1001500081F2030881F20308B971000881F20308F3
:1001600081F2030881F2030881F2030881F2030897
:1001700081F2030881F2030881F203080000000005
:1001800081F2030881F2030881F2030881F2030877
:1001900081F2030881F2030881F2030881F2030867
:1001A00081F2030881F2030881F2030881F2030857
:1001B00081F2030881F2030881F2030881F2030847
:0801C00081F2030881F203083B
:1001E0000348044B834202D0034B03B118477047C6
:1001F00094070020940700200000000005480649ED
:100200000B1AD90F01EBA301491002D0034B03B124
:100210001847704794070020940700200000000052
:1002200010B5064C237843B9FFF7DAFF044B13B13E
:100230000448AFF300800123237010BDA007002005
:1002400000000000F8F2030808B5044B1BB1044994
:100250000448AFF30080BDE80840CFE7000000008D
:10026000A4070020F8F2030851EC100B204A21F0FB
:100270000043934220DD00B51E4A934285B009DD5C
:1002800010EE102A0B4605F0D1FF41EC100B05B023
:100290005DF804FB684600F0D3FE00F0030001287F
:1002A0009DED021B9DED000B0AD0022816D090B1E7
:1002B000012002F03DFDEAE79FED0B1B01F0D0BFEE
:1002C00002F036FD53EC102B03F1004300EE903AA0
:1002D00005B05DF804FB01F0C3FFD8E701F0C0FFF3
:1002E000F0E700BFAFF30080000000000000000056
:1002F000FB21E93FFFFFEF7F51EC100BF8B5C1F395
:100300000A53A3F2FF35132D10EE106A0C4630DCB1
:10031000002D1EDB384F2F4101EA070303432DD088
:1003200033A3D3E9002305F083FF0022002306F066
:10033000C5FB48B1002C04DA4FF4801343FA05F5ED
:100340002C4424EA070400262346324643EC102BB3
:10035000F8BD27A3D3E9002305F06AFF002200239C
:1003600006F0ACFB0028EFD0002C29DB0026344639
:10037000EAE7332D05DDB5F5806F19D041EC100BA0
:10038000F8BDA3F213434FF0FF37DF400742F5D02B
:1003900017A3D3E9002305F04BFF0022002306F04A
:1003A0008DFB0028D0D0002C13DB26EA0706CBE714
:1003B00010EE102A0B4605F03BFF41EC100BF8BD88
:1003C00024F000430D4A1E43002E18BF1446002699
:1003D000BAE7142D08D00123C5F1340503FA05F559
:1003E000AE1928BFE418E0E70134DEE7AFF3008080
:1003F0009C7500883CE4377EFFFF0F000000F0BFD3
:1004000053EC102B70B5164E23F000410025B1427D
:100410000446056021DC10EE106A0E431DD0114E1B
:100420001E40184666B91946002210EE100A0E4BFF
:1004300006F0B4F86FF035050246084621F0004199
:1004400020F0FF40091520F4E000A1F2FE3140F059
:100450007F53294443F40013216043EC102B70BDFB
:10046000FFFFEF7F0000F07F00005043000000001E
:100470002DE9F04FDA4B2DED028B5BEC10AB9B4579
:1004800083B06DDDD74B9B455C465ADCD64B9B4514
:1004900040F3BE819FEDBE7B8DED007B251510EEF8
:1004A000106AA5F2FF35D14BC4F313049C4244F00B
:1004B0007F5700F3618147F4401730463946CC4BF3
:1004C000002205F0B3FECB4B06460F46002206F095
:1004D00065F832463B4606F061F88046894649ECAD
:1004E000188BB246BB46002C69D10022002330464F
:1004F000394606F0BBFA002800F0A981002D00F073
:10050000C381284605F0E0FFA3A3D3E900230646F4
:100510000F4606F043F8DDE9002305F089FEA0A3AD
:10052000D3E9002304460D463046394606F036F836
:1005300002460B462046294605F07AFE41EC100B98
:1005400009E010EE102A10EE100A5B46214605F075
:100550006FFE41EC100B03B0BDEC028BBDE8F08FD9
:10056000A54B2BF000449C425A4611DDA34B10EEE4
:10057000100A0022594606F079FA002800F092800D
:10058000012003B0BDEC028BBDE8F04F03F0D0B802
:100590009B4B9C4240F38F809A4B1A449A4240F204
:1005A0003781944B10EE100A0022594605F0F6FFF1
:1005B00052465B4605F0F2FF41EC180B0025002285
:1005C0004FF080435046594605F032FE02460B4636
:1005D0005046594606F00CF902460B4680468946BD
:1005E00005F0DCFF70A3D3E9002306460F4605F0B3
:1005F000D5FF6FA3D3E9002305F01AFE32463B4630
:1006000005F0CCFF6CA3D3E9002305F011FE3246C0
:100610003B4605F0C3FF6AA3D3E9002305F008FEBB
:1006200032463B4605F0BAFF67A3D3E9002305F045
:10063000FFFD32463B4605F0B1FF65A3D3E9002339
:1006400005F0F6FD32463B4605F0A8FF62A3D3E96C
:10065000002305F0EDFD32463B4605F09FFF0646C0
:100660000F46002D44D155EC184B18EE102A2B469E
:1006700005F0DEFD42464B4605F090FF02460B4674
:1006800018EE100A294605F0D1FD02460B465046E9
:10069000594605F0CBFD41EC100B03B0BDEC028BCD
:1006A000BDE8F08F4BEC10AB03B0BDEC028BBDE8A6
:1006B000F04F03F059B8544B002210EE100A59467F
:1006C00005F0B6FD0022002306F0F8F928B14F4BE3
:1006D0009C4202DC4BEC10AB3DE752465B46504679
:1006E000594605F05BFF434B002205F057FFCCE76E
:1006F000284605F0E9FE2AA3D3E9002304460D4667
:1007000005F04CFF02460B463046394616461F465A
:1007100053EC182B05F08CFD42464B4605F03EFF8E
:1007200002460B462046294614461D461AA3D3E925
:10073000002305F033FFDDE9002305F079FD0246D3
:100740000B462046294605F073FD02460B4651EC48
:10075000180B05F06BFD52465B4605F067FD02463F
:100760000B463046394605F061FD41EC100B03B0F5
:10077000BDEC028BBDE8F08F47F40017C4F5801480
:10078000304639460135A41099E600BFAFF300802A
:100790000000000000000000763C7935EF39EA3DAA
:1007A0000000E0FE422EE63F44523EDF12F1C23F1F
:1007B0009FC678D0099AC33FDE03CB966446C73FF5
:1007C000AF788E1DC571CC3F599322942449D23FF6
:1007D00004FA97999999D93F935555555555E53F41
:1007E0007982DA3FFFFFEF7FFFFF3F439DA00600C6
:1007F0000000F03F0000E03FFFFFEF3F0000F0BFD0
:10080000FFFF1F3E3C412D4000005043FFFF8F3C47
:10081000414B00225046594605F00AFD0D15A5F240
:10082000FF35002D06460F460C465ADD52465B4604
:1008300005F0FCFC02460B460020374905F0F6FCAB
:1008400032463B4605F0D4FFCDE900012BE62AA352
:10085000D3E900233046394605F0A0FE02460B4698
:1008600000202D4905F0E2FC42464B4605F096FE7D
:10087000804689465DB902460B463046394605F04A
:10088000D5FC41EC100B66E69FED1D0B63E6284698
:1008900005F01AFE1CA3D3E9002382468B4605F01F
:1008A0007DFE1BA3D3E9002304460D46504659465E
:1008B00005F074FEDDE9002305F0BAFC02460B46A4
:1008C0004046494605F0B2FC32463B4605F0AEFCD8
:1008D00002460B462046294605F0A8FC41EC100BC9
:1008E00039E60D4B002205F0A1FC02460B465046AE
:1008F000594605F09BFCA3E7555555555555E53F21
:1009000000000000000000000000E0FE422EE63F74
:10091000763C7935EF39EA3D0000F03F53EC102B7F
:10092000C3F30A5CACF2FF31132910B510EE100AC4
:100930009E4622DC002909DB1F4C44FA01FC03EA35
:100940000C04204310D143EC102B10BD03F0004EDB
:10095000013104BF4EF07F5E4EF4401E002073460E
:10096000024643EC102B10BD4FF4002343FA01F173
:100970008E442EEA0C0E0020F1E7332908DDB1F594
:10098000806FE0D1194605F053FC41EC100B10BD0F
:10099000ACF2134C4FF0FF3424FA0CFC12EA0C0FAB
:1009A000D1D00123C1F1330103FA01F1401828BF6E
:1009B0009E4420EA0C00D2E7FFFF0F000000000079
:1009C00051EC100B204A21F00043934227DD00B583
:1009D0001E4A934285B009DD10EE102A0B4605F041
:1009E00025FC41EC100B05B05DF804FB684600F0F7
:1009F00027FB00F0030001289DED021B9DED000B7D
:100A000012D0022817D090B101F02AFC53EC102B21
:100A100003F1004300EE903A05B05DF804FB9FED52
:100A2000081B002002F084B901F01AFCDBE701206A
:100A300002F07EF9D7E7012002F07AF9E6E700BF7D
:100A40000000000000000000FB21E93FFFFFEF7FF6
:100A500010EE102AC2F3C7537F3B162B22F0004141
:100A60002FDC002B18DB1A4919410A4228D0DFED90
:100A7000197A70EE277AF5EEC07AF1EE10FA1FDDE2
:100A8000002A04DD4FF4000040FA03F31A4422EA7E
:100A9000010300EE103A7047DFED0E7A70EE277A10
:100AA000F5EEC07AF1EE10FA0ADD002A06DBF7EE69
:100AB000007A002918BFB0EE670A70479FED060A5A
:100AC0007047B1F1FF4FFBD330EE000A704700BF13
:100AD000FFFF7F00CAF249710000008010EE103A5B
:100AE000184A23F0004393421BDDB3F1FF4F02DBB2
:100AF00030EE400A704700B583B0684601F07AFADC
:100B000000F003000128DDED010A9DED000A0CD084
:100B1000022812D070B1012002F084FD03B05DF80C
:100B200004FBDFED090A02F0C1B902F07BFDB1EE72
:100B3000400AF3E702F0BAF9F0E702F0B7F9B1EED4
:100B4000400AEBE7D80F493F0000000010EE102AE2
:100B5000C2F3C7537F3B162B22F0004128DC002B49
:100B600018DB1A4919410A4221D0DFED197A70EEDB
:100B7000277AF5EEC07AF1EE10FA18DD002A04DAD1
:100B80004FF4000040FA03F31A4422EA010300EE96
:100B9000103A7047DFED0E7A70EE277AF5EEC07AE4
:100BA000F1EE10FA03DD002A08DB9FED0A0A704718
:100BB000B1F1FF4FFBD330EE000A7047FFEE007A31
:100BC000002918BFB0EE670A704700BFFFFF7F0023
:100BD000CAF249710000000010EE103AC3F3C75288
:100BE0007F3A162A10EE101A15DC002A0CDB0C488E
:100BF0001041034205D04FF4800313410B4423EA14
:100C0000000300EE103A7047013203F00043F8D1C0
:100C100043F07E53F5E7802AF3D130EE000A7047A7
:100C2000FFFF7F0010EE103A194A23F00043934271
:100C30001CDDB3F1FF4F02DB30EE400A704700B518
:100C400083B0684601F0D6F900F003000128DDED1D
:100C5000010A9DED000A0ED0022813D070B102F0F7
:100C600025F9B1EE400A03B05DF804FBDFED090A97
:100C7000002002F0D7BC02F019F9F4E7012002F0DD
:100C8000D1FCF0E7012002F0CDFCB1EE400AEAE72A
:100C9000D80F493F0000000010B582B08DED010A69
:100CA000019C24F00043B3F1FF4F0BDB002CF7EE67
:100CB000007A29DBB0EE407A87EE870A30EE270A09
:100CC00002B010BD214A934207DDB7EE000A002CA6
:100CD000B8BFB1EE400A02B010BDB3F1105F1BDB2C
:100CE000B3F17E5F21DB02F07BFF30EE000A02F001
:100CF0003DFEB0EE007A30EE070AF7EE007AC7EE5E
:100D0000006A37EEE60AE2E79DED017A87EE870A90
:100D100030EE670A02B010BDDDED017AB7EE000AD1
:100D200037EE800A20EE270ACAE702F059FFF8EEF4
:100D3000007A20EE270A02F019FEB0EE007A30EEBB
:100D4000077AF1EE407A87EE870AC0E7FFFFAF41EE
:100D500038B52DED028B55EC104B00F097FB184B7E
:100D6000B0EE408AF0EE608A93F9003001330DD086
:100D700022462B462046294605F0AAFE30B900221D
:100D800000232046294605F07BFE30B9B0EE480A24
:100D9000F0EE680ABDEC028B38BD03F091F800223A
:100DA0000023212101601046194605F021FD41EC88
:100DB000180BB0EE480AF0EE680ABDEC028B38BDA5
:100DC0000400002008B52DED028BB0EE408A00F043
:100DD00029FC164B93F900300133F0EE408A12D013
:100DE000B0EE480A02F004FF68B1DFED117AB4EE0C
:100DF000E78AF1EE10FA12DCDFED0E7AB4EEE78A44
:100E0000F1EE10FA04D4B0EE680ABDEC028B08BD16
:100E100003F056F82223DFED088A0360F3E703F0BE
:100E20004FF82223DFED058A0360ECE70400002081
:100E30008071B142B5F1CFC2000000000000807F98
:100E400008B52DED028BB0EE408A00F0D9FC144BB2
:100E500093F90030013314D0B4EE488AF1EE10FA61
:100E60000FD6B5EEC08AF1EE10FA0ADCB5EE408A74
:100E7000F1EE10FA08D103F023F822239FED090ABE
:100E80000360BDEC028B08BD03F01AF8BDEC028BC9
:100E9000034621221A600448BDE8084002F0B6BEAD
:100EA00004000020000080FF9C28040808B52DEDF8
:100EB000048BF0EE408AB0EE608A00F0A1FD474B53
:100EC00093F900300133B0EE409A1FD0B4EE488A57
:100ED000F1EE10FA1AD6F4EE688AF1EE10FA59D64D
:100EE000DFED3F9AF4EE698AF1EE10FA13D1B4EE19
:100EF000698AF1EE10FA29D0B0EE480A02F078FEC5
:100F000020B1B4EEE98AF1EE10FA4DD4B0EE490A00
:100F1000BDEC048B08BD02F06BFEF0B1B5EE409A5B
:100F2000F1EE10FAF2D1B0EE680A02F061FE00288C
:100F3000ECD0B0EE480A02F05BFE0028E6D002F0EA
:100F4000BFFF22239FED269A0360DFE7B7EE009AEA
:100F5000B0EE490ABDEC048B08BDB0EE680A02F0A1
:100F600047FE0028DAD0B0EE480A02F041FE002821
:100F7000D4D0B4EE499AF1EE10FA28D602F0A0FFD0
:100F8000F5EEC08A2223F1EE10FA036013D49FED30
:100F9000159ABBE7B5EE408AF7EE007AF1EE10FA4B
:100FA00008BFB0EE679AB1E702F08AFF21239FEDF8
:100FB0000E9A0360AAE7B0EE480A02F02DFEB4EEE6
:100FC000480AF1EE10FAE2D09FED079A9EE702F090
:100FD00077FF212389EEA99A036097E70400002098
:100FE000000000000000807F000080FF08B52DEDAC
:100FF000028BB0EE408A01F02FF90E4B93F90030CE
:1010000001330BD0B4EE488AF1EE10FA06D6DFEDCC
:101010000A8AB4EEE88AF1EE10FA02D4BDEC028B33
:1010200008BD02F04DFF88EEA80ABDEC028B21231B
:10103000036008BD04000020000000000000000064
:101040002DE9F04F53EC102B2DED048B904923F03C
:1010500000458D428BB0044640F38C808D498D4213
:101060001F462BDC002F194610EE100A7EA3D3E991
:10107000002340F3B68105F0D9F8874B9D428046A6
:10108000894600F08F807AA3D3E9002305F0CEF8DB
:1010900002460B46C4E900234046494605F0C6F81F
:1010A00073A3D3E9002305F0C1F8C4E902010126C6
:1010B00030460BB0BDEC048BBDE8F08F77498D4214
:1010C00040F3928076498D4261DC2E15A6F21646D9
:1010D00010EE100AA5EB06519046894605F00EFD6C
:1010E00005F0F2F902460B4640464946CDE9042395
:1010F00005F09CF86B4B002205F050FA89468046BB
:1011000005F0FCFC054605F0DFF902460B464046BB
:101110004946CDE9062305F089F8624B002205F027
:101120003DFA02460B46CDE908230022002305F0D4
:101130009DFC002800F05381002D0CBF01230223E9
:10114000594A0192022200922146324604A801F037
:10115000C7F9002F0646ABDA6168226801F1004347
:10116000E168C4E90023A26801F10043C4E9022355
:1011700046429DE7002000210026C4E902013046D6
:1011800084ED000B0BB0BDEC048BBDE8F08F10EECE
:10119000100A194605F04AF80026C4E90201C4E91C
:1011A000000185E734A3D3E9002305F03FF834A319
:1011B000D3E900238046894605F038F802460B46FD
:1011C000C4E900234046494605F030F82CA3D3E992
:1011D000002305F02BF80126C4E9020130460BB0CC
:1011E000BDEC048BBDE8F08F02F024FB59EC108BB2
:1011F00010EE100A24A3D3E90023494605F0CEF9E6
:101200002A4B002205F014F805F078FC064605F09C
:101210005BF902460B4643EC182B13A3D3E90023DA
:10122000B0EE489AF0EE689A05F0B8F902460B461F
:101230004046494604F0FAFF0DA3D3E90023824655
:101240008B4651EC180B05F0A9F91F2E41EC180B39
:1012500030DC174B721E53F82230AB422AD00246C4
:101260000B469BE0AFF3008000004054FB21F93FA8
:101270003163621A61B4D03D0000601A61B4D03DA0
:101280007370032E8A19A33B83C8C96D305FE43F96
:10129000FB21E93F7BD90240FB21F93FFB2139418A
:1012A000FFFFEF7F0000704190F303080000E03F74
:1012B00010F303082B150393504653EC182B594693
:1012C00004F0B4FFC1F30A53C3EB1555102D80464B
:1012D000894669DD64A3D3E9002351EC190B05F0BD
:1012E0005DF98046894642464B465046594604F0D1
:1012F0009DFF02460B465046594692469B4604F0D7
:1013000095FF42464B4604F091FF59A3D3E90023D1
:101310008046894651EC190B05F040F942464B4690
:1013200004F084FF02460B465046594643EC182B06
:1013300004F07CFF039AC1F30A53D31A312B804681
:10134000894631DD4DA3D3E9002351EC190B05F09B
:1013500025F98046894642464B465046594604F098
:1013600065FF02460B465046594692469B4604F09E
:101370005DFF42464B4604F059FF42A3D3E90023E8
:101380008046894651EC190B05F008F942464B4658
:1013900004F04CFF02460B4643EC182B50465946CE
:1013A00004F044FF8046894642464B46C4E9008922
:1013B0005046594604F03AFF53EC182B04F036FF20
:1013C000002FC4E90201BFF673AE09F10043C4E97E
:1013D000008301F10043C4E90203764268E6032377
:1013E000AEE604F025FF244B9D428046894616D088
:1013F0001BA3D3E9002304F01BFF02460B46C4E9FC
:1014000000234046494604F011FF15A3D3E9002309
:1014100004F00EFF4FF0FF36C4E9020148E612A3C4
:10142000D3E9002304F004FF11A3D3E9002380468D
:10143000894604F0FDFE02460B46C4E900234046FF
:10144000494604F0F3FE0AA3D3E9002304F0F0FEBA
:101450004FF0FF36C4E902012AE600BFAFF3008077
:101460003163621A61B4D03D0000601A61B4D03DAE
:101470007370032E8A19A33BFB21F93F0000002E55
:101480008A19A33BC14920259A837B392DE9F04174
:10149000634A55EC104BAA4300F09F80002D10EEDC
:1014A00010CA2B4654DD291563D0C3F31303A1F2F0
:1014B000FF37C90743F4801304D45B0003EBDC73EC
:1014C0004FEA4C0C4FEADC72002602EB43037F101C
:1014D0004FEA4C0C4FF0160E34464FF40012A11890
:1014E000994202DC5B1A8C1816445B00BEF1010EB7
:1014F00003EBDC734FEA52024FEA4C0CEFD1754616
:1015000020204FF000420AE044D04FEADC7101385D
:1015100001EB43034FEA4C0C4FEA520243D0A34283
:1015200002EB0E01F0DD002901EB020E0ADBA04602
:101530001B1B614588BF03F1FF33ACEB010C154465
:101540004446E2E7BEF1000FF1DB04F10108EFE7EA
:1015500025F00042224338D0002D4ED129464FEAD3
:10156000DC22153913464FEA4C5C002AF7D0D6022C
:1015700050D400205B00DD02044600F10100F9D5E3
:101580001A4663460CFA00FCC0F12000C340091B58
:1015900013438AE76145B8D8002901EB020ED1DB7D
:1015A00098460023C9E753EA0C0310D1680871106C
:1015B000F30701F17F5101F5001148BF40F00040F1
:1015C00001EB0753024643EC102BBDE8F0816A1C87
:1015D00016BF681C01364008E9E710EE102A10EE2D
:1015E000100A2B46294604F0D9FF22462B4604F068
:1015F0001FFE41EC100BBDE8F08110EE102A2046D2
:10160000294604F013FE02460B4605F0F1F841ECC2
:10161000100BDAE7634620204FF0FF34B6E700BF37
:101620000000F07F10EE103A23F00042B2F1FF4FBD
:1016300052D84FEAD37100F09380614883424EDC68
:10164000002BC0F286805F4B9A424DD95E4B9A4286
:1016500000F299805D4A02EB810292ED004A92ED20
:10166000027AC1F1010330EE444A5B1A34EE470AB4
:10167000DFED577ADFED574A9FED575A9FED576AD6
:10168000DFED575A60EE006AE6EEA74AA4EEA65ACE
:10169000A5EE266AE6EE265AB0EE406AA5EEE66AA8
:1016A000002B47D0F0EE006A60EE065A36EEC66AAE
:1016B000F7EE007A85EE860A13F17D0F37EE400AC9
:1016C00030EE440A37EEC00A51DB10EE102A02EB6E
:1016D000C35300EE103A704730EE000A70479FED9A
:1016E000410A20EE000A7047B2F1465F0AD2DFEDF0
:1016F0003D7A70EE277AB7EE007AF4EEC77AF1EE13
:1017000010FA5ADC60EE007A9FED317ADFED315A43
:101710009FED316ADFED316AE7EE875A9FED307A4F
:10172000A7EEA56AE7EE866AB0EE406AA7EEA67A53
:10173000A7EEC76AF0EE007A60EE066A36EE676AD8
:10174000B7EE007AC6EE867A37EEC00A37EE400A68
:101750007047254B9A427FF676AF9FED240A70477B
:10176000DFED227A002918BFB0EE670A704710EE4D
:10177000102A643302EBC353DFED1D7A00EE103AFA
:1017800020EE270A7047114B9FED1A7A9FED1A6AD7
:10179000DFED1A6A03EB8103D3ED047AE0EE077AFA
:1017A000B0EE404AFDEEE77AB8EEE77A17EE903AEF
:1017B000A7EE464A27EE267A58E730EE070A70472A
:1017C0001772B1421872B13E9115853F98F4030823
:1017D0004CBB31330EEADDB555B38A38610B36BBED
:1017E000ABAA2A3ECAF24971B5F1CF42000000000F
:1017F0000000800D3BAAB83F8071313FD1F7173709
:1018000010EE103A33F000422ED0002B33DBB3F150
:10181000FF4F40DAB3F5000F34DB4FF0000C68489F
:10182000C3F31601084400F4000282F07E520A431A
:10183000DB1500EE102A7F3B624A634401F10F0C76
:10184000F7EE007A0CEA020230EE670A03EBD0539F
:1018500022BBB5EE400AF1EE10FA60D1002B40F049
:1018600092809FED590A70479FED587ADFED567AC6
:1018700087EE270A704770EE407A9FED537A87EE25
:10188000870A7047DFED527A60EE277A6FF0180C06
:1018900017EE903AC3E730EE000A7047F0EE007A98
:1018A00070EE277A07EE103A80EE274A4948C1F5D4
:1018B0005712084402F522720243002A9FED463A6D
:1018C000DFED464ADFED465ADFED463A9FED465AD8
:1018D000DFED467ADFED466A24EE046AF8EEC72AA9
:1018E00026EE067AE7EE034AA7EE235AE4EE875A7D
:1018F000E5EE076AE5EE877A67EE867AE6EE877AA6
:101900002ADDB6EE007A20EE077A27EE007A4BBB8E
:1019100077EE877AA7EEC47A30EE470A7047B6EEC4
:10192000007ADFED346AF0EE477AE0EE667A20EE78
:10193000007A27EE277A002BEED007EE903A9FED43
:101940002E6ADFED2E6AF8EEE77AA7EEC67A37EE5A
:10195000400A97EEA60A704713BB70EE677AA7EEAF
:10196000C40A7047DFED246A9FED246A77EE877A18
:1019700062EEA66AE7EE846A37EE667A37EE400AD0
:1019800092EE860A704707EE903A9FED1B0A9FED94
:101990001B7AF8EEE77A27EE800AA7EE870A7047EF
:1019A0009FED157ADFED156A70EE677A27EE627AA1
:1019B000A7EE847A37EE400A92EEA60A704700BF7F
:1019C00020FB4A00F0FF7F0000000000000000CC78
:1019D0000000004C305CCFFF9788173E25333A3E1D
:1019E0002549923E4FD01C3E298E633EABAA2A3F2A
:1019F000CDCCCC3EABAAAA3ED1F717378071313F90
:101A00002DE9F04710EE904A34F000482DED028B9E
:101A100015D010EE105A25F00047B7F1FF4F10EE29
:101A2000109A06DDBDEC028BB948BDE8F04702F024
:101A3000EDB8B8F1FF4F08DDB7F17E5FF2D1B7EE38
:101A4000000ABDEC028BBDE8F087002D10EE906A15
:101A5000C0F2F4804FF0000AB8F1FF4F00F00281AD
:101A6000B8F17E5F00F02881B6F1804F00F03D8133
:101A7000B6F17C5F00EE105A40F00181B9F1000F21
:101A800080F2388102F0ACF8B7F1FF4F00F0098125
:101A9000002F00F00281B7F17E5F00F0F8804FEA7E
:101AA000D973013B5AEA030200F02A81B8F19A4F38
:101AB00040F35081974A974240F35982964A9742A1
:101AC00000F3FF80F7EE007A30EE670A9FED936A2D
:101AD000DFED935AF5EE007AA0EE676AF6EE006A43
:101AE000E6EE406A20EE007ADFED8E7A9FED8E6A98
:101AF00027EE267A67EEC77AE0EE257AF0EE676A7F
:101B0000E0EE066A16EE902A22F47F6222F00F02BF
:101B100007EE102AA0EE467A06EE902A77EEC77AF4
:101B200026F47F6626F00F0607EE104A06EE106ACE
:101B300067EE877A37EE466A07EE106AE6EE267A97
:101B40000AF1FF3A5AEA030326EE877AB7EE000A53
:101B500077EE876ABFEE006A16EE903A0CBFB0EEE1
:101B6000468AB0EE408A002B23F0004240F3B58154
:101B7000B2F1864F00F3F48100F0E781B2F17C5FAF
:101B800000F3B7810022104623F47F6323F00F0394
:101B900006EE103ADFED656A9FED655A9FED652A06
:101BA0009FED653ADFED653A9FED654ADFED654AE9
:101BB00036EE477AF0EE002A77EEC77A26EE267ADE
:101BC000DFED616AA7EEA67AF0EE476AE6EE056AF7
:101BD00066EEA65AF0EE667AA5EE823AE6EE457A11
:101BE000B0EE636AA3EE256A77EE677AB0EE447AC8
:101BF000A6EE257AB0EE646AA7EE256AB0EE667AA4
:101C0000A6EE657AE6EEA77A66EE875A37EE626A46
:101C1000B7EE005A85EE867A77EE677A77EEE66A57
:101C200035EE660A10EE103A1344B3F5000FC0F219
:101C3000B68100EE103A20EE080A02E7B8F1974F9D
:101C40001ADAB8F17E5F0ADB4FEAE853C3F1960374
:101C500048FA03F202FA03F3434500F039814FF0EA
:101C6000000AFDE6B7F17E5F3FF4E9AE2FDD002EFE
:101C70002ADB00EE104AE4E64FF0020AECE601F03F
:101C8000AFFFB7F1FF4F02D0002F7FF404AF002E5B
:101C9000BCBFF7EE007A87EE800AB9F1000FBFF6FD
:101CA000D0AEA7F17E5757EA0A0340F00A8170EEE2
:101CB000407A87EEA70AC4E6002E0FDB00EE105A2A
:101CC000BFE6002E00F356819FED200AB9E6002EF4
:101CD000FADA07EE904AB1EE670AB2E607EE105A5A
:101CE000F7EE007A87EE870AABE607EE905A27EE0A
:101CF000A70AA6E6BDEC028BBDE8F04700F0ACBA3F
:101D000007EE905A77EEE77A87EEA70A99E600BFCA
:101D10009C280408F7FF7F3F0700803FABAAAA3E3C
:101D200070A5EC363BAAB83F00AAB83F8CBEBF35C1
:101D30000072313F4CBB31330EEADDB555B38A3802
:101D4000610B36BBABAA2A3E1872313F000000007F
:101D50000000804B19F0FF4F40F0F5805FED047AF2
:101D600060EE277A6FF0170217EE907A8D48F9151A
:101D7000C7F316077F398742114447F07E5240F37C
:101D8000DA808948874240F3FA809FED885A013112
:101D9000B0EE453AA2F50002F7EE005A002006EE3A
:101DA000102A76EE257AB7EE007A87EE270A5210CF
:101DB00042F0005202F58022024476EE656A07EE98
:101DC000901A66EE803AB8EEE77A13EE901A07EEB4
:101DD000902A774ADFED770A9FED778A9FED771A91
:101DE000DFED772ADFED771A9FED772A77EEE55A58
:101DF000114004EE901A36EE656A63EEA35AE4EEE3
:101E0000E76AF0EE607AE5EE887AE4EEC66AA7EE5D
:101E1000A51A66EE806AE1EE252A73EEA47AE2EE58
:101E2000A51A25EEA58AA1EEA52A67EEA67AB0EE40
:101E3000084AB0EE446AE8EE027AA4EEA46ADFED46
:101E4000630A9FED631ADFED632A36EE276A16EE0A
:101E5000101A114006EE101A76EE445AE4EEE45AD7
:101E600077EEE57A67EEA37AE6EE867AF0EE675AC9
:101E7000E4EE865A15EE901A114006EE901AE4EE42
:101E8000C66A05EE901A77EEE67A67EEA07AE5EE7E
:101E9000817A77EE837AF0EE676AE5EEA26A76EEF3
:101EA000856A76EE876A16EE901A114006EE901A51
:101EB00036EEC77A37EE457AA5EEE27A77EEC77A44
:101EC0002EE6BAF1010F7FF4BCADB1EE400AB8E5E1
:101ED00002F00102C2F1020AC2E53F498A4257DC20
:101EE0007FF44CAE76EEC76AF4EEE76AF1EE10FAD4
:101EF0004EDAD2154FF400017E3A41FA02F21A444A
:101F0000C2F3C751354C7F390C41C2F3160022EAA7
:101F1000040206EE902A37EE667A40F40000C1F122
:101F200017010841002B77EE876AB8BF404216EED2
:101F3000903AC20528E69FED1D5AF7EE005AB0EE22
:101F4000453A00202BE7002210E79FED256A76EE48
:101F5000C76A37EE866AB4EEE66AF1EE10FAC8DDBB
:101F6000DFED207A28EE270A20EE270A69E5002E09
:101F7000BFF6AAAE9FED1B0A20EE000A61E59FEDB9
:101F80001A5A9FED1A3AF7EE085A4FF4001006E776
:101F9000DFED177A28EE270A20EE270A51E501F037
:101FA00099FE48E671C41C00D6B35D000000000035
:101FB00000F0FFFF55326C3E42F1533E05A38B3ECD
:101FC000ABAAAA3EB76DDB3E9A99193F4F38763FD0
:101FD000A0C39D360038763F00001643FFFF7F0008
:101FE0003CAA3833CAF2497100C0153FDCCFD13565
:101FF0006042A20D70B510EE103A894A23F00044F9
:10200000944286B0054670DD864A944210EE106A0E
:1020100022DC002BDFED847A844A24F00F04B0EE3A
:10202000407A40F3E480944270EE677A09BFDFEDB6
:10203000806A9FED807A9FED807A77EEE67A0120C4
:1020400077EEC76A77EEE67AC5ED006A77EEC77A73
:10205000C5ED017A06B070BD784A944254DDB4F102
:10206000FF4F49DAE215863AA4EBC25307EE903AE5
:10207000BDEEE77ADFED726AB8EEC77A77EEC77A1F
:102080008DED037A67EEA67ABDEEE77AB8EEC77AF1
:1020900077EEC77A8DED047A67EEA67AF5EE407A90
:1020A000F1EE10FACDED057A40F09080B5EE407A71
:1020B000F1EE10FA14BF02230123624901910221BB
:1020C000009103A8294600F073FF002EC2DA95EDB7
:1020D000007AD5ED017AB1EE477AF1EE677A85EDB7
:1020E000007AC5ED017A4042B4E7002285ED000A8E
:1020F0004260002006B070BD70EE407A0020C5ED51
:10210000017AC5ED007AA5E701F06AFD9FED4E7AF0
:102110009FED456AF6EE007AE0EE077A9FED457A8C
:10212000FDEEE77A17EE900AF8EEE76A1F28A6EEB2
:10213000C60A66EE877AB1EE666A1EDC434A411E25
:1021400024F0FF0352F82120934216D030EE677A34
:1021500085ED007A30EE470A002E30EE670A85EDF5
:10216000010ABFF677AFB1EE477AB1EE400A85EDCE
:10217000007A85ED010A40426CE730EE677AE2159D
:1021800017EE103AC3F3C753C3EBD454082CDFDD6A
:10219000DFED277A9FED287AF0EE405AE6EE275AD7
:1021A00030EE650AA6EE270AF0EE407AD6EE877A80
:1021B00035EEE77A17EE103AC3F3C753D21A192A4D
:1021C00006DCB0EE650A85ED007AC3E7032374E709
:1021D0009FED1F7A9FED1F5AB0EE650AA6EE070A23
:1021E00075EEC07AE6EE077AD6EE857AAEE79442CF
:1021F00070EE277A09BFDFED0E6A9FED0E7A9FED34
:102200000E7A77EEA67A4FF0FF3077EE876A77EE98
:10221000E67AC5ED006A77EE877AC5ED017A19E7AF
:10222000D80F493FE3CB1640800FC93FD00FC93FBD
:10223000004435374344353708A3852E800F494382
:102240000000804330F5030884F9223FB0F403080E
:1022500000A3852E32318D24B1EEC00A704700BF35
:102260002DE9F84F57EC106B27F00049B9F1795F71
:102270002DED048B5BEC11AB71DA10EE100A3946D0
:1022800004F03CFC002800F0F68032463B46304625
:10229000394604F083F97CA3D3E9002304460D46B4
:1022A00004F07CF97AA3D3E9002303F0C1FF2246AE
:1022B0002B4604F073F978A3D3E9002303F0B6FFAB
:1022C00022462B4604F06AF975A3D3E9002303F0F4
:1022D000AFFF22462B4604F061F973A3D3E9002334
:1022E00003F0A4FF22462B4604F058F970A3D3E96B
:1022F000002303F09DFF22462B4604F04FF941ECEA
:10230000180B714B00222046294604F047F953EC84
:10231000182B804689462046294604F03FF952464C
:102320005B4604460D463046394604F037F902460E
:102330000B462046294603F079FF02460B464046ED
:10234000494603F073FF02460B4600205F4903F045
:102350006DFFBDEC048B41EC100BBDE8F88F10EE67
:10236000102A10EE100A3B46394604F017F946A32E
:10237000D3E9002304460D4604F010F944A3D3E941
:10238000002303F055FF22462B4604F007F942A331
:10239000D3E9002303F04AFF22462B4604F0FEF85F
:1023A0003FA3D3E9002303F043FF22462B4604F06A
:1023B000F5F83DA3D3E9002303F038FF22462B466E
:1023C00004F0ECF83AA3D3E9002303F031FF2B46E5
:1023D000224604F0E3F83E4B994541EC180B90DDA2
:1023E0003C4B99453CDC0022A9F5001337490020FD
:1023F0009046994603F01AFF41EC190B324B00222C
:102400002046294604F0CAF842464B4603F00EFF28
:1024100053EC182B804689462046294604F0BEF826
:1024200052465B4604460D463046394604F0B6F83F
:1024300002460B462046294603F0F8FE02460B46AC
:102440004046494603F0F2FE02460B4651EC190B9A
:1024500003F0ECFEBDEC048B41EC100BBDE8F88FF3
:102460009FED157BDFF87090B0EE479AF0EE679A1B
:102470004FF00008C2E7BDEC048B9FED110BBDE8E7
:10248000F88F00BFAFF30080D43888BEE9FAA8BD4A
:10249000C4B1B4BD9EEE213EAD529C804F7E923EB3
:1024A0009015CB19A001FA3E7751C1166CC1563F69
:1024B0004C5555555555A53F000000000000E73F1D
:1024C000000000000000F03F0000E03F0000F03F8F
:1024D0003233D33F0000E93F0000D23F000000004C
:1024E0002DE9F04FADF5197D1C4608930B91BA4BC1
:1024F000A299049053F821100591631E12F1140F54
:102500000393C0F24B83B549D31E81FB0301DB1754
:10251000C3EBA10307930133A3EB8303DB00D318C1
:102520000693079A039BD41A059AD6181AD4013633
:10253000A39F264420AD4FF000084FF0000908E0AB
:1025400057F8240003F0C0FF0134B442E5E802016B
:1025500008D0002CF4DA013440464946B442E5E89C
:102560000201F6D1059B002BC0F2C683089BDDF863
:102570000C9020AA02EBC30ADA000292059A1A44D0
:102580000192049A0DF5E07B02EBC308039B002B3C
:10259000C0F2A781049E57460024002577E9022354
:1025A000F6E8020103F0FAFF02460B4620462946F0
:1025B00003F03EFE464504460D46EFD1019B09F16E
:1025C00001099945EBE802450AF1080ADED1049AAF
:1025D000029B1344059A01929B460BAB03EB8203CB
:1025E0000A930CAB03EB8203083B0993019A98AB67
:1025F00003EBC203002A53E9284529DD0DF5E07AF3
:102600000AEBC2080DF13009754B0022204629461D
:1026100003F0C4FF04F072FA03F056FF714B00227E
:1026200006460F4603F0BAFF02460B4620462946EF
:1026300003F0FCFD04F062FA78E9022349F8040B88
:102640003946304603F0F4FDD04504460D46DBD153
:10265000DDF8189045EC104B484601F0F5F855ECC4
:10266000104B00224FF07F5310EE100A294603F062
:1026700095FF41EC100BFDF73FFE5B4B51EC100B4F
:10268000002203F08BFF02460B462046294603F04A
:10269000CDFD0D46044604F031FA804603F014FFE8
:1026A0000B4602462946204603F0C0FD4B46002B50
:1026B00006460F4640F39A80019A511E0CAAC9F1B2
:1026C000180352F8212042FA03F000FA03F3D31A58
:1026D000C9F117050CAA43FA05F5002D42F821307F
:1026E000804400F38D80002200233046394604F0F8
:1026F000BDF9002800F05982019B059A03F1FF3AC9
:10270000524510DC03F180430CAA013B0A9802EB0E
:102710008303002253F80419834242EA0102F9D1EB
:10272000002A40F0E180059B0CAA013B52F82330BF
:10273000002B40F0D180099A012352F8041901338B
:102740000029FAD0019AD3180293531C9946019A92
:1027500008990A449046079A02EB030A0AF1804A54
:10276000A39A0AF1FF3A02EB8A0A20AA02EBC808F0
:1027700070AA02EBC30301935AF8040F03F0A4FEFE
:102780000B46039902460029C8E90023474608F191
:1027900008081EDB049E0024002501E077E90223DF
:1027A000F6E8020103F0FAFE02460B4620462946EF
:1027B00003F03EFD5E4504460D46EFD1019BE3E884
:1027C00002450193029B09F101099945D4DD01936A
:1027D0000CE700240025F1E748F80308ABAAAA2A71
:1027E0000000703E00007041000020406BD1019B52
:1027F0000CAA013B52F82350ED15002D7FF773AF63
:10280000019B002B08F1010840F3CD810C9C002CAA
:1028100051D1019B012B20D00CAB012253F8044F66
:10282000002C4BD0531C0CA9C4F1807441F82240F9
:102830000199994210DD0CAA0CA852F8232000EB54
:10284000830300EB81006FF07F4100E01A688A1A71
:1028500043F8042B8342F9D10124069B002B0EDDA3
:10286000012B00F06C81022B09D1019B5A1E0CAB8D
:102870000CA953F82230C3F3150341F82230022D7E
:102880007FF431AF32463B46B749002003F0CEFC1F
:1028900006460F46002C3FF426AF06989FEDAE0B80
:1028A00000F0D2FF3046394653EC102B03F0BEFC4B
:1028B00006460F4617E701230022B4E701990132CB
:1028C0008A42ABD1C9E7A94B002204F0EDF80028F9
:1028D00040F05281054606E7019B01339946029379
:1028E00035E70024002569E6069B0395A3F118024D
:1028F0000CABCDF81C8053F82A30069273B9019BBB
:1029000003F18043023B0CA901EB830353F8041944
:102910000AF1FF3A183A0029F8D006929FED8E0B83
:10292000069800F091FFBAF1000F55EC104BC0F281
:10293000D98170AB03EBCA0B0CAA0AF10103069311
:1029400002EB8306DFF828924FEACA0304930BF1E7
:1029500008074FF0000856F8040D03F0B5FD2246B5
:102960002B4603F01BFE4B4667E902014246204618
:10297000294603F013FE0CAB9E4204460D46EAD1F5
:1029800048ABCDE9013ADDF814A0BAF1000F4FF0E1
:1029900000092CDB72A3D3E90023DFF8D8815F465E
:1029A00000260024002503E0B14510DBF8E80223EF
:1029B000F7E8020103F0F2FD02460B4620462946E5
:1029C00003F036FC0136B24504460D46ECDA019BB5
:1029D000029A03EBC9034A45C3E90045ABF1080B72
:1029E00009F1010306D0BAF1000F9946D2DA0024AA
:1029F0000025ECE7A29BDDF808A0022B1EDC002BD3
:102A000000F3098113D1049C019D08342C4400205B
:102A1000002174E9022303F00BFCA542F9D1039BCA
:102A200013B101F1004319460B9BC3E90001079B59
:102A300003F007000DF5197DBDE8F08FA29B032B75
:102A4000F5D1BAF1000F00F06981019A049BD31807
:102A5000D3E9004502EBCA0B7BE902672046294611
:102A600032463B4603F0E4FBA046A94604460D4629
:102A700022462B463046394603F0D8FB4B464246A9
:102A800003F0D6FB019B5B45CBE90201CBE9004596
:102A9000E2D1BAF1010F40F34181019A049B0AF19E
:102AA000005A0AF1FF3A13444FEACA01D3E900453C
:102AB00001F1080A029192440DF5947B7AE90267CC
:102AC0002046294632463B4603F0B2FBA046A946C3
:102AD00004460D4622462B463046394603F0A6FBF7
:102AE00042464B4603F0A4FBD345CAE90201CAE9BA
:102AF0000045E3D1029C019B10341C4403F11005F6
:102B00000020002174E9022303F092FBA542F9D1D1
:102B1000039B002B40F0BD800B9CC4E9040101988D
:102B2000D0E90023C4E90023D0E90223C4E9022349
:102B3000079B03F007000DF5197DBDE8F08F019BA1
:102B40005A1E0CAB0CA953F82230C3F3160341F8FC
:102B5000223094E6AFF30080000000000000F03F58
:102B600000000040FB21F93F0000F03F0000E03F83
:102B70000000703E60F80308019B002B08F101087B
:102B8000C8BF02253FF742AE32463B4665490020AA
:102B900003F04CFB022506460F46A4E500216FF02A
:102BA00017030791BBE4002457E647EC106B069E21
:102BB00003957042CDF81C8000F046FE55EC104B9A
:102BC000594B10EE100A0022294603F06DFF002831
:102BD00055D0564B019F00221836204629460696AE
:102BE00003F0DCFC03F08AFF064603F06DFC4E4B5D
:102BF000002203F0D3FC0B4602462946204603F090
:102C000015FB03F07BFF07F1010A0CAB43F827002B
:102C100043F82A6082E6019D069B002005EBC30471
:102C2000002174E9022303F003FBA542F9D1039BC1
:102C3000002B47D10B9BC3E900010B4601990246CB
:102C4000D1E9000103F0F2FABAF1000F0DDD4AAD4F
:102C50000124F5E80223013403F0EAFAA245F8DA88
:102C6000039B13B101F1004319460B9BC3E9020119
:102C7000079B03F007000DF5197DBDE8F08F204696
:102C8000294603F03BFF019B0CAA9A4642F8230019
:102C900044E6019E01F1004374680B993268F568BF
:102CA000C1E9040304F10043C1E90023B26805F15E
:102CB0000043C1E90223079B03F007000DF5197DCE
:102CC000BDE8F08F0B9A01F1004353600B46019968
:102CD00010600246D1E9000103F0A8FABAF1000F32
:102CE000B5DCBFE7A29B022B0ADC002B11DC7FF4D2
:102CF0009EAE0020002192E6089BDB00029366E472
:102D0000A29B032B7FF493AE48AB002000210193DC
:102D1000FEE648AB00200021019388E70020002157
:102D2000F6E600BF0000F03F000070410000703E7A
:102D30002DE9F04F55EC104B85B025F00043B3F171
:102D4000795F8DED001B039007DA10EE100A29461B
:102D500003F0D4FE002800F0898022462B4620464E
:102D6000294603F01BFC06460F4632463B462046EA
:102D7000294603F013FC43A3D3E9002382468B4684
:102D80003046394603F00AFC40A3D3E9002303F0A0
:102D90004DFA32463B4603F001FC3EA3D3E9002343
:102DA00003F046FA32463B4603F0F8FB3BA3D3E977
:102DB000002303F03BFA32463B4603F0EFFB39A316
:102DC000D3E9002303F034FA039B80468946ABB372
:102DD000DDE900012A4B002203F0E0FB42464B46AE
:102DE000804689465046594603F0D8FB02460B46BA
:102DF0004046494603F01AFA32463B4603F0CEFB02
:102E0000DDE9002303F012FA1BA3D3E900230646F1
:102E10000F465046594603F0C1FB02460B4630466A
:102E2000394603F005FA02460B462046294603F0D0
:102E3000FDF941EC100B05B0BDE8F08F02460B46E2
:102E40003046394603F0AAFB0BA3D3E9002303F075
:102E5000EDF952465B4603F0A1FB22462B4603F0F8
:102E6000E7F941EC100B05B0BDE8F08F45EC104BD5
:102E700005B0BDE8F08F00BF495555555555C53FC4
:102E80000000E03F7CD5CF5A3AD9E53DEB9C2B8A38
:102E9000E6E55A3E7DFEB157E31DC73ED561C11937
:102EA000A0012A3FA6F810111111813F10EE103A2F
:102EB00023F00043B3F1485F2CDAFDEEC07A17EE41
:102EC000903A002B60D020EE007ADFED317A9FED52
:102ED000315ADFED315A9FED316ADFED316AA7EEED
:102EE000275ADFED307AE7EE055AA7EE256AE7EEBE
:102EF000067AE7EE276A67EE266A60EEC00AF6EE0B
:102F0000007AE7EE260AB7EE000AD7EE270A30EE7F
:102F1000600A704720EE007ADFED1D7A9FED1D5AA2
:102F2000DFED1D5A9FED1D6ADFED1D6A1E4AA7EEFB
:102F3000275A9342DFED1B7AE5EE075AA5EE876A22
:102F4000E6EE077AE7EE876A66EE876AD5DD174A0E
:102F5000934214DC03F17F4307EE903AB7EE006A28
:102F600036EE676A60EEC00AF6EE005AD7EE257AB2
:102F7000E7EE260A77EEE00A36EE600A7047B6EE14
:102F8000076AF5EE027AEDE7B7EE000A704700BF78
:102F90004ED747ADF6740F317CF293B4010DD037A4
:102FA000ABAA2A3D610BB6BA9999993E0000483FF9
:102FB0002DE9F04F2DED048BDBB01C4603930691F9
:102FC000A24B6899089253F82150111D824604F1D2
:102FD000FF38C0F2A382D31E48BF131DDB1002933B
:102FE0000133DB000793DDE907239B1A0593029B5E
:102FF00015EB0801A3EB080316D401319FED947A79
:10300000699819441EAA002BA4BF50F8234007EE6C
:10301000904A03F10103ACBFF8EEE77AF0EE477A8D
:103020008B42E2EC017AEED1002DC0F2E782039BE5
:103030001EAA02EB830446AE4FEA830C4046EF180B
:103040000AEB8301B8F1000FDFED817A09DB22463C
:103050005346F3EC016A32ED017A8B42E6EE877A51
:10306000F7D10130B842E6EC017A04F10404E9D169
:1030700009AB0AAF03EB850907EB8503083B9FED1E
:10308000769ADFED748A059804930AEB0C0446AE39
:1030900000955AAB03EB8503002D13ED140A4FEA9C
:1030A000850B16DD06EB85033A4660EE097AB0EE35
:1030B000407AFDEEE77A73ED016AF8EEE77AB34203
:1030C000A7EEE87A37EEA60ABDEEC77AA2EC017A3F
:1030D000EBD1019000F0FEFDB0EE408AB4EE000AA4
:1030E00028EE000AFDF732FDF2EE007AA0EE678AC4
:1030F00001980028FDEEC89AF8EEE97A38EE678A62
:1031000079DD05F1FF3EC0F1080357F82E1041FAB2
:1031100003FC0CFA03F3CB1AC0F1070219EE901A64
:1031200043FA02F26144002A47F82E3009EE901A61
:1031300069DCB5EE408AF1EE10FA40F0C080009BE9
:1031400005F1FF3B5B4510DC05F18043013B07EBDC
:1031500083030021944653F804294B4541EA0201B8
:10316000F9D16246002940F0F280009B013B57F8FC
:103170002330002B40F0E780049B4FF0010C53F804
:1031800004290CF1010C002AF9D06B1CAC449E46BA
:10319000039A5119029A02EB030B0BF1804B699AC7
:1031A0000BF1FF3B06EB83051EAB02EB8B0B03EB36
:1031B0008101DBED017A9FED267AF8EEE77AB8F12E
:1031C000000F0BF1040BC1ED007A0A4601F1040176
:1031D00009DB534601E072ED017AF3EC016AA34288
:1031E000A6EEA77AF7D10EF1010EE645A5EC017A1D
:1031F000DFDD65464DE740F09C806B1E57F82320CD
:103200001212002A95DD19EE903A002D03F1010308
:1032100009EE903A40F39881396800297FD1012D59
:1032200026D03B464FF0010C53F8041F00297AD0FA
:103230000CF10103C1F580719D4247F82C1016DD99
:1032400057F82310BB4407EB83030AE098F8030800
:1032500000000000000080430000803B0000C93FE8
:103260001968C1F1FF0143F8041B5B45F8D1012146
:1032700000280CDD012800F04881022807D105F163
:10328000FF3C57F82C3003F03F0347F82C30022A5C
:103290007FF44FAFB7EE000A30EE488A00293FF4C2
:1032A00048AF0992019000F015FD38EE408A099A66
:1032B0000198B5EE408AF1EE10FA3FF440AF029269
:1032C000DDE90732B0EE480A981A0195009D00F03A
:1032D00001FD1FED207AB4EEC70AF1EE10FADDE928
:1032E0000132C0F259815FED247A059960EE277AA8
:1032F0000831FDEEE77A0591F8EEE77A03F1010B6C
:10330000A7EEC70AFDEEE77ABDEEC00A10EE101A6E
:1033100047F8231017EE903A47F82B302EE00123A0
:103320004FF0000C86E70CF1010CAC457FF47CAF4C
:103330009EE7F6EE007AB4EEE78AF1EE10FA80F23C
:10334000F2800022F5E66B1C9E469C4620E705991C
:10335000A1F1080057F82B1005902B46009D69B984
:1033600003F18043023B07EB8303014653F8040952
:103370000BF1FF3B08390028F8D005910598009221
:10338000B7EE000A00F0A6FCBBF1000F009AC0F2F5
:1033900028814FEA8B0E46AB03EB0E060EF1040CB0
:1033A0001FED537A07EB0C03311D73ED017AF8EE34
:1033B000E77ABB4267EE807A20EE070A61ED017A78
:1033C000F3D1002D1FED5B6A4FF0000420DB934822
:1033D000DFED937AB0EE467A3146002303E09C425B
:1033E00008DBB0EC017AF1EC016A01339D42E6EEB4
:1033F000877AF4DA5AAB03EB8403A34543ED287ACA
:10340000A6F1040604F1010305D0002D1C46DEDA06
:10341000DFED837AEEE7689902291CDC002900F3CE
:1034200095800FD132ABDFED7E7A9C443CED017A82
:10343000634577EE877AF9D10AB1F1EE677A069B98
:10344000C3ED007A19EE903A03F007005BB0BDECD3
:10345000048BBDE8F08F689B032BF3D1BBF1000F09
:1034600000F0D4800EF5B4736B4432A913ED287AC2
:1034700001EB8B0373ED017AF0EE476A37EE277AA2
:10348000994277EEC77A83ED007A77EEA67AC3ED9C
:10349000017AEFD1BBF1010F40F3B8800BF1804B03
:1034A0000EF5B4730BF1FF3B0DEB030E4FEA8B0BE4
:1034B0000BF104031EED287A0B4433A873ED017A57
:1034C000F0EE476A37EE277A984277EEC77A83EDB7
:1034D000007A77EEA67AC3ED017AEFD10BF1080BF3
:1034E000DFED4F7A01EB0B03083133ED017A99429E
:1034F00077EE877AF9D1002A56D10699329A339B12
:103500000A604B60C1ED027A9CE705F1FF3C57F879
:103510002C3003F07F0347F82C30B8E608230793DC
:10352000002302935FE519EE903A002D03F10103A9
:1035300009EE903AC8BF02223FF76EAEF7EE007A6E
:1035400037EEC88A0222F4E5002191E632A9DFEDC8
:10355000347A01EB830333ED017A994277EE877A6F
:10356000F9D19DED327A8ABB069BBBF1000FC3ED0A
:10357000007A77EE677A0BDD33A90123B1EC017A8B
:1035800001339B4577EE877AF8DA0AB1F1EE677A74
:10359000069BC3ED017A55E7BDEEC00A9B4610EECF
:1035A000101A47F82310E9E6DDED326A9DED337A13
:1035B000069BF1EE666AB1EE477AF1EE677AC3EDEB
:1035C000006A83ED017AC3ED027A3BE7069BF1EED8
:1035D000676ABBF1000F77EE677AC3ED006ACBDC58
:1035E000D4E7689B022B0DDC002B14DC7FF42AAFA0
:1035F000DFED0B7A002A3FF422AF1EE7039B4FEA70
:10360000830C35E5689B032B7FF41CAFDFED047A58
:10361000002AC9D171E7DFED027AA2E7A8F8030812
:103620000000000010EE103A23F00043B3F1485FB1
:1036300004DAFDEEC07A17EE903A5BB360EE007AE2
:103640009FED157ADFED155A9FED156ADFED156ACE
:10365000E7EE875A9FED147AA5EEA76A20EE275A67
:10366000E6EE276AA6EEA77A30B9DFED106AE7EE3C
:10367000876AA6EE850A704727EE457AF6EE006A5D
:10368000A0EEA67ADFED0A6AD7EE270AE5EE260A53
:1036900030EE600A704700BFD3C92E2F342FD7B247
:1036A0001BEF3836010D50B98988083CABAA2ABEF9
:1036B000ABAA2A3ED0B506460F46144600F000FCE1
:1036C0000346394630461C60D0BD00BF30B51446B5
:1036D00083B01D4608B103F10043CDE90023DDE9C5
:1036E00000232046294602F059FF222203B0BDE8FC
:1036F0003040DFE708B500224FF08053FFF7E6FFC8
:1037000041EC100B08BD00BF08B50022024BFFF7CB
:10371000DDFF41EC100B08BD0000581E08B500226B
:103720004FF0E043FFF7D2FF41EC100B08BD00BFA4
:1037300000B5002283B080B9094BCDE90023DDE953
:1037400000010023002203F053F82222FFF7B2FF0A
:1037500041EC100B03B05DF804FB024BEDE700BF3A
:103760000000F03F0000F0BF38B555EC104B2DEDD8
:10377000028B10EE102A10EE100A2B46294602F09A
:1037800055FD02460B4603F033F8224641EC180B78
:103790002B462046294603F09BF930B951EC180B13
:1037A0002122FFF787FF41EC180BB0EE480AF0EE3C
:1037B000680ABDEC028B38BD38B555EC104B10EEE5
:1037C000100A00220023294603F050F910B945ECF5
:1037D000104B38BD204629462222FFF76BFF0446D6
:1037E0000D4645EC104B38BDF8B555EC104B25F0A7
:1037F00000470F4B10EE100A4FF0FF32394603F02E
:1038000067F938B90A4B204639464FF0FF3203F0CA
:1038100041F910B145EC104BF8BD20462946222253
:10382000FFF748FF04460D4645EC104BF8BD00BFBE
:10383000FFFFEF7F51EC100B10EE102A21F0004338
:1038400043EC102B704700BF38B553EC102BC3F37B
:103850000A5104469C4689BB10EE101A23F0004C16
:103860005CEA010129D0194600223D4B3D4D10EE86
:10387000100A02F093FEAC4202460B4616DB8C4661
:10388000C1F30A513639214440F2FE70814221DCF5
:10389000002947DC11F1350F34DA4CF250318C42FB
:1038A00018DC002B26A1D1E9000144DB24A3D3E9D5
:1038B000002302F073FE41EC100B38BD40F2FF70A4
:1038C0008142E0D110EE100A194602F0B1FC41EC41
:1038D000100B38BD002B1CA1D1E9000107DB1AA396
:1038E000D3E9002302F05AFE41EC100B38BD18A1B9
:1038F000D1E9000114A3D3E9002302F04FFE41EC0B
:10390000100BF3E72CF0FF4C2CF4E00C36314CEAB2
:103910000153104619460022134B02F03FFE41ECC2
:10392000100B38BD2CF0FF4C2CF4E00C4CEA01538A
:1039300043EC102B38BD08A1D1E90001B6E700BF68
:1039400059F3F8C21F6EA5019C7500883CE4377ED0
:103950009C7500883CE437FE59F3F8C21F6EA581C0
:1039600000005043B03CFFFF0000903C10EE102AD6
:103970008C4922F000438B422AD9B3F1FF4F7ED805
:1039800000F0D880002AC0F28A80874A934200F271
:10399000F380DFED866A60EE266AF6EE007A77EE57
:1039A000A67A9FED836ADFED836AFDEEE77AB0EEDB
:1039B000407A17EE903AF8EEE77AA7EEC67A67EE0D
:1039C000A66A37EE660A77EE407A77EEE67A07E087
:1039D00079498B4256D8B3F14C5FC0F08480002304
:1039E000B6EE003A20EE034ADFED746A9FED746A8A
:1039F000DFED744A9FED745A20EE047AF7EE003A38
:103A0000A7EE266ADFED716AE6EE074AB0EE086AB5
:103A1000E4EE876AF1EE085AA6EE875AF0EE636A82
:103A2000E5EE076AA4EE666AE0EE465A36EEC66A2E
:103A3000C6EE256A66EE876A002B4DD076EEE76A01
:103A40005A1CD6EE807A77EEC77A65D0012B53D018
:103A50005A1C392A33D8162B73DC4FF080721A4166
:103A6000C2F17E5277EEC07A00EE102A30EE670A7D
:103A700010EE102A02EBC35300EE103A704730EEFE
:103A8000000A704752498B427CD8002A9FED487A41
:103A900049DBDFED486A30EE477A012391E7DFED3D
:103AA0004D7A70EE277AF5EEC07AF1EE10FA66D410
:103AB000DFED3E6AFEEE007A60EE266A6FE777EE93
:103AC000C07A33EEE70A10EE102A02EBC35300EE81
:103AD000103A30EE630A7047F0EE477AD0EE267A5D
:103AE00030EE670A7047DFED3C7A70EE277A77EEAA
:103AF000E77A30EE670A7047BDEE007AB4EEC70A87
:103B0000F1EE10FA2FD530EE033AB8EE000A77EE58
:103B1000C37A27EE800A704770EE677ABEEE000A1D
:103B2000A7EE830A7047DFED2D6A30EE077A4FF07B
:103B3000FF3346E7FFEE007A002AB8BFB0EE670A0F
:103B40007047C3F17F02D20507EE102A77EE877A1D
:103B500070EE677A37EEA30A10EE102A02EBC35319
:103B600000EE103A704770EE677AB0EE007AE7EE3A
:103B7000873AB0EE630A7047002000F039B9BFEE13
:103B8000000A7047DFED097AB6EE007ABEEE006AF1
:103B9000002A60EE276AB4BFF0EE467AF0EE477A6C
:103BA000FDE600BF43B895411772B1423BAAB83F4A
:103BB0008071313FD1F717371872B13EBBED57B462
:103BC000547E8636CD70A6B8898808BD010DD03ADE
:103BD0009115853F6042A20DCAF24971D1F717B71E
:103BE00010EE103A23F0004300EE103A704700BF89
:103BF00082B08DED010A019820F00040B0F1FF4F36
:103C0000ACBF0020012002B0704700BF9FED010A49
:103C1000704700BF0000C07F10EE101AC1F3C753F9
:103C2000A3F17F02162A21F0004325DC53B3002ABA
:103C300082B04FEAD17026DB244B1341194219D0D0
:103C40004FEA530C11EA530307D04FF4001321EA53
:103C50000C0113410B4300EE103A1D4B03EB8003A4
:103C6000D3ED007A37EE800A8DED010A9DED010A51
:103C700030EE670A02B07047B3F1FF4F02D330EE67
:103C8000000A70477047124AC1F316035B4202EB09
:103C900080005B0A0A0D03F480031205134307EE4C
:103CA000903AD0ED006A36EEA77A01F000418DED32
:103CB000017ADDED017A77EEE67A17EE903A23F09D
:103CC00000430B4300EE103AD4E700BFFFFF7F0034
:103CD000D0F8030882B08DED010A019B33F0004259
:103CE0002AD0B2F1FF4F23D213F0FF4F28D19DED20
:103CF000017ADFED2A7A2A4B67EE277A9842CDEDDA
:103D0000017A37DB019BC3F3C752193A0244FE2AFA
:103D10001ADD9FED240A9FED247A019B002BF0EE23
:103D2000407AB8BFB0EE470A20EE270A02B07047CB
:103D300030EE000A02B070479DED010A02B07047F4
:103D4000D20D0244FE2AE4DC002A0BDC12F1160F2D
:103D500017DA4CF250339842DBDC9FED140A9FEDEA
:103D6000147ADAE723F0FF4343EAC25300EE103A35
:103D700002B070479FED0D0ADDED017A27EE800A53
:103D8000D8E7193223F0FF4343EAC253DFED097A43
:103D900007EE103A27EE270ACCE700BF0000004CE0
:103DA000B03CFFFFCAF24971CAF249F16042A20D6C
:103DB0006042A28D0000003310B582B08DED010A83
:103DC000044600F07DF89DED010A046002B010BDCC
:103DD0009FED050ADFED057A002808BFF0EE407A76
:103DE00027EE800A2220E7E700000070000000F0C4
:103DF000EEE700BF00289FED060AFFEE007AB7EE5F
:103E0000007A08BFF0EE477A87EE800A2220D3E7D7
:103E10000000000070EE407AB4EE400A87EEA77A08
:103E2000F1EE10FAB0EE470A01D62120C4E7704740
:103E300008B5062001F088F8012003F009F900BF59
:103E400000B50B4C25681446EE681A4685B003464B
:103E50000D464CB107490095CDE90114304606499D
:103E600000F056F8FFF7E4FF04490C46F3E700BF03
:103E700008000020F4470508044805089C280408A9
:103E800008B513460022FFF7DBFF00BF10B4044C57
:103E900003460A4620685DF8044B194600F0ECBA68
:103EA0000800002010B5054C34B113460A460146FF
:103EB000022001F059FB10BD204610BD69550008D5
:103EC000014B1868704700BF0800002008B5074B79
:103ED000044613B1002101F09DFB054B1868836A6D
:103EE00003B19847204603F0B3F800BF1556000809
:103EF000D8F803080CB400B583B004AB53F8042B16
:103F0000019300F0C7FB03B05DF804EB02B070470B
:103F10000EB410B583B005AB064C53F8042B0193D7
:103F20000146206800F0B6FB03B0BDE8104003B0C6
:103F3000704700BF080000202DE9F0410E461446EE
:103F4000804608B1836973B3224B9C4230D0224B28
:103F50009C4239D0214B9C4208BFD8F80C40A38921
:103F60001B072AD5236943B335783DB92FE0236871
:103F70005A1C22601D7016F8015F45B3A368013B0F
:103F8000002BA360F3DAA769BB42294622464046CC
:103F900001DB0A2DEBD101F001FA0130EBD14FF03A
:103FA000FF30BDE8F08101F089FD0A4B9C42CED183
:103FB000D8F80440A3891B07D4D42146404601F019
:103FC00051FA0028D0D0EAE7D8F80840C7E7002027
:103FD000BDE8F08120F9030800F90308E0F80308C0
:103FE00010B4044C03460A4620685DF8044B194699
:103FF000FFF7A2BF080000202DE9F84F0A9D914667
:104000000F4602FB03F8824610B18369002B34D0BF
:10401000274B9D4236D0274B9D4241D0264B9D4297
:1040200008BFDAF80C50AB891B0730D52B6973B386
:10403000B8F1000F31D007F1FF3B002606E02A68F7
:10404000511C296013700136B0452CD0AC681BF8A8
:10405000013F013C002CAC60F1DAAF69BC422A465A
:104060001946504601DB0A2BE9D101F097F90130DE
:10407000E9D1B6FBF9F0BDE8F88F01F01FFD0C4B5C
:104080009D42C8D1DAF80450AB891B07CED429462B
:10409000504601F0E7F90028CAD00020BDE8F88FAB
:1040A000DAF80850BFE7B8FBF9F0BDE8F88F00BFB9
:1040B00020F9030800F90308E0F8030810B5064CDE
:1040C00082B084460093206813460A466146FFF793
:1040D00093FF02B010BD00BF0800002070B50D4E68
:1040E0000D4D761BB61006D0002455F8043B013464
:1040F0009847A642F9D1094E094D761B3BF0FCF8D2
:10410000B61006D0002455F8043B01349847A64267
:10411000F9D170BD78480508784805087C4805083D
:1041200078480508024B0146186800F015BA00BF30
:1041300008000020024B0146186800F0ABB900BF30
:1041400008000020032A70B515D940EA010C1CF0C4
:10415000030F04460B4621D1194620460E68056818
:10416000B54204F1040403F1040317D1043A032A0D
:1041700020461946F0D8541EA2B100F1FF3C013987
:1041800001E0C3180CD01CF801EF11F8012F96457F
:10419000A4EB0C03F5D0AEEB020070BD541EECE7AF
:1041A000184670BD104670BD844641EA000313F006
:1041B00003036DD1403A41D351F8043B40F8043B2E
:1041C00051F8043B40F8043B51F8043B40F8043BF1
:1041D00051F8043B40F8043B51F8043B40F8043BE1
:1041E00051F8043B40F8043B51F8043B40F8043BD1
:1041F00051F8043B40F8043B51F8043B40F8043BC1
:1042000051F8043B40F8043B51F8043B40F8043BB0
:1042100051F8043B40F8043B51F8043B40F8043BA0
:1042200051F8043B40F8043B51F8043B40F8043B90
:1042300051F8043B40F8043B403ABDD2303211D330
:1042400051F8043B40F8043B51F8043B40F8043B70
:1042500051F8043B40F8043B51F8043B40F8043B60
:10426000103AEDD20C3205D351F8043B40F8043B30
:10427000043AF9D2043208D0D2071CBF11F8013B2E
:1042800000F8013B01D30B8803806046704700BFF4
:10429000082A13D38B078DD010F003038AD0C3F103
:1042A0000403D21ADB071CBF11F8013B00F8013BE5
:1042B00080D331F8023B20F8023B7BE7043AD9D3A4
:1042C000013A11F8013B00F8013BF9D20B78037079
:1042D0004B7843708B7883706046704788420DD965
:1042E0008B1883420AD900EB020CBAB1624613F86C
:1042F00001CD02F801CD9942F9D170470F2A0ED8AD
:10430000034602F1FF3C4AB10CF1010C013B8C4425
:1043100011F8012B03F8012F6145F9D1704740EAEC
:1043200001039B0750D1A2F1100370B501F1200CDD
:1043300023F00F0501F1100E00F11004AC441B092D
:104340005EF8105C44F8105C5EF80C5C44F80C5CA1
:104350005EF8085C44F8085C5EF8045C44F8045CB1
:104360000EF1100EE64504F11004E9D1013312F00C
:104370000C0F01EB031102F00F0400EB031327D025
:10438000043C24F003064FEA940C1E441C1F8E4686
:104390005EF8045B44F8045FB442F9D10CF1010407
:1043A00002F0030203EB840301EB840102F1FF3C02
:1043B0004AB10CF1010C013B8C4411F8012B03F8BC
:1043C000012F6145F9D170BD02F1FF3C03469BE727
:1043D0002246EBE7830730B548D0541E002A3FD071
:1043E000CAB2034601E0013C3AD303F8012B9D0712
:1043F000F9D1032C2DD9CDB245EA05250F2C45EA7C
:10440000054536D9A4F1100222F00F0C03F1200E5D
:10441000E6444FEA121C03F1100242E9045542E956
:10442000025510327245F8D10CF1010214F00C0F54
:1044300003EB021204F00F0C13D0ACF1040323F0D1
:1044400003030433134442F8045B9342FBD10CF0A2
:1044500003042CB1CAB21C4403F8012B9C42FBD1CB
:1044600030BD64461346002CF4D1F9E703461446E8
:10447000BFE71A46A446E0E738B502FB01F5294636
:1044800000F06AF8044618B12A460021FFF7A2FF9F
:10449000204638BD002958D030B551F8043C83B0CF
:1044A000002BA1F10404B8BFE418019001F0C0FD95
:1044B000284A0198136833B1A3420DD9216804EB4F
:1044C000010C63452FD06360146003B0BDE8304039
:1044D00001F0B0BDA34210D81A465B68002BF9D199
:1044E000116802EB010C644519D02FD3636054604E
:1044F00003B0BDE8304001F09DBD116802EB010C36
:10450000A44516D022D8216804EB010C6345EDD1F7
:104510001D685B682944C4E900135460D5E723682B
:1045200019441160D1E71D685B682944C4E9001390
:10453000CAE7246821445418A3421160C5D1D3E9C5
:1045400000432144C2E90013BFE770470C23036016
:10455000BBE700BFBC070020F8B5CD1C25F0030564
:1045600008350C2D38BF0C25002D064623DBA9424B
:1045700021D8254F01F05CFD3A6822B3144603E0D0
:1045800063682246FBB11C4623685B1BF8D40B2BE7
:1045900015D8636894420CBF3B605360304601F00D
:1045A00049FD04F10B00231D20F00700C21A01D0C1
:1045B0001B1AA350F8BD0C2333600020F8BD236004
:1045C0001C442560EAE77968C9B12946304600F005
:1045D00015FC431C0CD0C41C24F00304A04205D0DD
:1045E000211A304600F00AFC013001D02560D5E7E1
:1045F0000C233046336001F01DFD0020F8BD30462D
:1046000000F0FCFB7860E0E7BC0700209368013B0A
:10461000002B936011DA10B49469A34209DB0A29D4
:1046200007D01368581C1060197008465DF8044BD9
:1046300070475DF8044B00F0B1BE1368581C106061
:1046400019700846704700BF9BB1F8B51344064681
:104650000F46541E5D1E01E0AC4208D014F8011F45
:104660003A463046FFF7D2FF431CF5D1F8BD002093
:10467000F8BD0020704700BF936810B5144613B909
:104680005360184610BD01F039FA0023C4E9013324
:1046900010BD00BF2DE9F04F88469FB015461C465F
:1046A000814618B18369002B00F0A280924B984597
:1046B00000F0A480914B984500F0B180904B984554
:1046C00008BFD9F80C80B8F80C30180740F19D806D
:1046D000D8F81030002B00F0988000230B93297835
:1046E000884E059420238DF8313030238DF83230F8
:1046F0000127002974D02C460B4604E014F8013F32
:10470000002B00F08F80252BF8D1B4EB050B40F087
:104710008C802378002B63D000234FF0FF32CDE94B
:104720000723069309938DF85B301C93013404E052
:10473000069A07FA03F3134306932546052214F855
:10474000011B304601F024FC831B0028F0D1069B9E
:10475000D90644BF20228DF85B2029781A0744BF70
:104760002B228DF85B202A2970D1059A116804321A
:1047700000290592C0F29B800991697801352E29A4
:1047800076D0614C0322204601F002FC38B1069B32
:10479000001B402404FA00F003430693013515F88A
:1047A000011B5A488DF83010062201F0F1FB002859
:1047B00000F08380564B002B6DD005AA0092554B1C
:1047C000424606A94846AFF300800390039B01339D
:1047D00006D00B9B039A297813440B9300298AD1A6
:1047E000B8F80C305B0617D40B981FB0BDE8F08FFB
:1047F00001F064F9404B98457FF45CAFD9F8048030
:10480000B8F80C3018073FF563AF4146484600F052
:1048100029FE00283FF461AF4FF0FF30E5E7D9F8FB
:10482000088050E7B4EB050BDAD0AA46C5F10105C4
:1048300003E0934536D91AF8011F42464846FFF770
:10484000E5FE013005EB0A02F3D1C9E7A1F1300220
:10485000092A94D8099B15F8011F03EB830302EB87
:104860004303A1F13002092AF5D92E29099388D1F1
:1048700069782A292BD1059BA9781A6807920433F5
:10488000002A05F102000593B8BF4FF0FF3305463B
:10489000B8BF079375E7059B073323F00703083379
:1048A000059396E70B9A23785A440B9232E74942D4
:1048B00043F00203099106935FE705AA0092154BA6
:1048C000424606A9484600F0CBF803907EE7A1F1E6
:1048D00030020023092A079305F101053FF651AF85
:1048E00015F8011F03EB830302EB4303A1F1300230
:1048F000092AF5D9079344E720F9030800F90308CA
:10490000E0F80308344805083C4805084048050815
:10491000000000004946000810B4054C84461346C8
:1049200020685DF8044B0A466146FFF7B3BE00BF3E
:10493000080000202DE9F84F92461F460A698B684F
:10494000DDF828909A42B8BF1A46CAF8002091F8BC
:1049500043300C46064613B10132CAF800202268E3
:1049600091065DD5DAF800300233CAF800302268CB
:1049700012F0060F11461ED1E168CB1A002BD8BFEA
:10498000114618DD04F1190B4FF0000805E0E56849
:10499000DAF80030ED1A45450CDD01235A46394658
:1049A0003046C847013008F10108F0D14FF0FF3020
:1049B000BDE8F88F216894F84330003B18BF01230D
:1049C0008A060AD5E1185A1C302081F84300224497
:1049D00094F8451082F84310023304F1430239463B
:1049E0003046C8470130E1D0236803F00603042BAA
:1049F0001DD0A3682269934225DD4FF000089B1A61
:104A000098441A34002501E045451CDA012322466A
:104A100039463046C847013005F10105F4D1C5E7F4
:104A200012F0060F12D0003B18BF0123D5E7DAF8C9
:104A30000030E1682269C91AA368934221EAE1784B
:104A4000DDDC0029DDDC0020BDE8F88FE168DAF864
:104A50000030CB1A002BD8BF114693DCABE700BF68
:104A60002DE9F0470C4684B09046227E0C9907460B
:104A7000994604F14300002A33D0A2F15803DDB275
:104A8000202D67D8202B65D8DFE813F0DE00640006
:104A900064006400640064006400640064006400F6
:104AA0006400A3006E0064006400640064006E0093
:104AB000640064006400640021007F00C0006400A2
:104AC0006400AE0064007F0064006400E5002368B9
:104AD0001A0640F104810B6862691D1D0D601B6898
:104AE0001A60002382462361CDF80090434603AA52
:104AF00021463846FFF71EFF013020D02369524679
:104B000041463846C847013019D02368E068039E03
:104B10009B0719D5831B002B16DD04F1190A00250C
:104B200004E0E068039E831BAB420DDD0123524687
:104B300041463846C847013005F10105F1D14FF033
:104B4000FF3004B0BDE8F087B042B8BF304604B0D3
:104B5000BDE8F087012384F84220236104F1420A72
:104B6000002384F84330BFE723681A0602D45E06A8
:104B700000F1C1800D682A6804350D601546002AD1
:104B80006BDBDFF884C10A2610E023681D0640F1C4
:104B90009C800B681D1D0D601D68DFF86CC16F2ABD
:104BA0000CBF08260A26002384F843306268A260FE
:104BB000002A7FDB236823F004032360002D5BD1F0
:104BC000002A79D18246082E65D0A0EB0A00206128
:104BD0008AE70B680122186804330B6004F1420A6B
:104BE00084F842002261BBE70B686268181D086008
:104BF000D3F800A00021504601F0CAF9002800F0C7
:104C00008180A0EB0A0060602061A9E7236843F07F
:104C1000200323607822DFF8F4C084F845200A6876
:104C2000151D0D601D0643D4590641D51588DE07B4
:104C300044BF43F020032360002D44D1236823F0B8
:104C4000200323601026AEE7582384F84530DFF8B0
:104C5000B8C02368E3E72368DCE76268A2602D211F
:104C6000002AC5F1000584F8431002DB23F0040399
:104C70002360DFF894C00A268246B5FBF6F306FBF4
:104C800013512A461CF801100AF8011DB2421D46B4
:104C9000F3D2082E99D12368D90796D56268236983
:104CA0009A4292DC30230AF8013C0AF1FF3A8CE781
:104CB0001568BCE7002DDFD19CF8003084F8423045
:104CC00004F1420A7FE710266DE713F0400F0B68EE
:104CD00003F104050D600CBF1D681D885DE713F02E
:104CE000400F0B68626903F104050D601B6814BF77
:104CF0001A801A60F5E60A68B2F9005004320A60B8
:104D00002A463CE760687FE7484805085C48050894
:104D10002DE9F0410E460746002833D083697BB366
:104D200084682F4B9C4237D02E4B9C423FD02E4B59
:104D30009C4208BFFC68A3891B0731D523697BB35C
:104D40003578B0463DB934E023685A1C22601D70A6
:104D500018F8015F6DB3A368013B002BA360F3DA81
:104D6000A669B34229462246384601DB0A2DEBD11B
:104D700000F014FB0130EBD14FF0FF30BDE8F081C3
:104D800000F09CFEBB69BC68002BCAD1384600F01D
:104D900095FE134B9C42C7D17C68A3891B07CDD4D9
:104DA0002146384600F05EFB0028C9D0E4E7BC6825
:104DB000C1E7A368013B002BA36009DA22460A2160
:104DC000384600F0EBFA0130D6D00A20BDE8F08179
:104DD00023680A22591C21601A701046BDE8F08130
:104DE00020F9030800F90308E0F80308024B014624
:104DF0001868FFF78DBF00BF0800002038B5074DC9
:104E00000022044608462A6002F052F9431C00D0F2
:104E100038BD2B68002BFBD0236038BD5C09002017
:104E200038B5446C0CB1002038BD80210546FFF731
:104E300093FB0246686430B1031F7C3243F8044F91
:104E40009342FBD1EFE74FF0FF3038BD1F29F8B593
:104E5000054608D8466C0C4617464EB156F8240055
:104E600046F82470F8BD162303604FF0FF30F8BDFC
:104E70008021FFF771FB0646686440B1031F00F113
:104E80007C05002143F8041F9D42FBD1E6E74FF06B
:104E9000FF30F8BD1F2938B5054620D8426C0C46B6
:104EA0006AB152F8213053B1012B16D0591C10D0E1
:104EB0000025204642F824509847284638BD284609
:104EC00000F0F8F8224601462846BDE8384000F0D8
:104ED000DBB816230360012038BD002038BD16233F
:104EE00003604FF0FF3038BD1F292AD8426C38B517
:104EF0000C46054682B152F8243002EB84024BB1D5
:104F0000591C19D0012B15D0002520461560984753
:104F1000284638BD012038BD8021FFF71DFB024621
:104F2000686458B1031F00217C3043F8041F984285
:104F3000FBD1E0E7032038BD022038BD4FF0FF3041
:104F400038BD4FF0FF30704738B5144B1F281D682F
:104F50001FD86A6C044662B152F820304BB1012B65
:104F600015D0591C0FD0002542F8205098472846EC
:104F700038BD284600F09EF8224601462846BDE886
:104F8000384000F081B816232B60012038BD002086
:104F900038BD16232B604FF0FF3038BD08000020CD
:104FA000124B1F2870B51E6808D80D46716C044658
:104FB00049B151F8240041F8245070BD16233360E4
:104FC0004FF0FF3070BD80213046FFF7C5FA014633
:104FD000706440B1031F00F17C0C002243F8042FE1
:104FE0006345FBD1E5E74FF0FF3070BD08000020BE
:104FF00038B50B4B1D686C6C0CB1002038BD80219E
:105000002846FFF7A9FA686438B1031F00F17C0253
:1050100043F8044F9342FBD1EFE74FF0FF3038BD28
:105020000800002038B5174B1F281D6826D86A6C69
:10503000044682B152F8243002EB84024BB1591C71
:105040001AD0012B16D00025204615609847284617
:1050500038BD012038BD80212846FFF77DFA024681
:10506000686458B1031F00217C3043F8041F834259
:10507000FBD1DFE7032038BD022038BD4FF0FF3001
:1050800038BD00BF0800002070B50C46084D03462F
:105090000026204611461C462E6001F0D1FF431C1D
:1050A00000D070BD2B68002BFBD0236070BD00BF0B
:1050B0005C09002001F0C2BF0000000000000000F9
:1050C000A2EB0300704700BF02780B78012A28BFCB
:1050D0009A42F5D16DE9044540EA0104CDE9026741
:1050E0006FF0000C4FEA447212B380EA010414F02E
:1050F000070F6AD100F0070420F0070004F0030551
:1051000021F007014FEAC505F0E8042314F0040F6D
:10511000F1E804670CFA05F462EA040266EA0406A0
:105120000AD063EA0403624667EA0407664603E0BE
:10513000F0E80423F1E8046782FA4CF582EA0604F9
:10514000A4FA8CF46CBB83FA4CF583EA0705A5FA44
:105150008CF595B950E9022351E9026782FA4CF5C2
:1051600082EA0604A4FA8CF483FA4CF583EA070574
:10517000A5FA8CF52543DBD09CB92DBAB5FA85F498
:1051800024F0070427FA04F1DDE9026723FA04F3A7
:1051900003F0FF0001F0FF01FDE80445A0EB010072
:1051A000704724BAB4FA84F424F0070426FA04F110
:1051B000DDE9026722FA04F202F0FF0001F0FF01CC
:1051C000FDE80445A0EB0100704714F0030F3CD14B
:1051D00010F0030428D150F8082B51F8083B82FA4C
:1051E0004CF582EA0305A5FA8CF55DB950F8042C5C
:1051F00051F8043C82FA4CF582EA0305A5FA8CF5D5
:10520000002DE8D02DBAB5FA85F424F0070423FA6E
:1052100004F122FA04F202F0FF0001F0FF01FDE8C0
:105220000445A0EB010070474FEAC40420F00300DE
:1052300050F8082B21F0030151F8083B0CFA04F454
:1052400062EA040263EA0403C9E710F003041AD017
:10525000A1EB040120F00300E40750F8042B06D072
:105260000FD28B785FFAA2F4E41A06D12BB1CB7877
:105270005FFAB2F4E41A00D11BB920465DF8104B76
:10528000704701F1040150F8042BCC0721F0030111
:1052900051F8043B48D824D222F07F4482FA4CF5DE
:1052A00094EA1325A5FA8CF50AD165B951F8043BA7
:1052B00084EA0204B4EB036F0ED150F8042BEBE741
:1052C0004FEA132355E035F07F454DD10878FDE8CE
:1052D0000445C0F1000070474FEA126203F0FF037B
:1052E00047E002EA1C4482FA4CF594EA1345A5FA19
:1052F0008CF50AD165B951F8043B84EA0204B4EB99
:10530000034F0CD150F8042BEBE74FEA134330E086
:1053100015EA1C4528D10B884FEA124229E04FEAD2
:10532000124203EA1C4324E002F0FF0482FA4CF527
:1053300094EA1365A5FA8CF50AD165B951F8043BD6
:1053400084EA0204B4EB032F09D150F8042BEBE7F5
:105350004FEA13630DE015F0FF0F05D10B684FEA1C
:10536000122223F07F4304E04FF00000FDE80445E3
:10537000704712BA1BBA82FA4CF482EA0304A4FA08
:105380008CF5B5FA85F402FA04F203FA04F34FEA55
:105390001260FDE80445A0EB13607047F8B50D46B8
:1053A0001446064608B1836943B3254B9C422AD074
:1053B000244B9C4229D0244B9C4208BFF468A3890B
:1053C000A269A2601A0722D5236903B32268616922
:1053D000D31AEDB299422F4629DD0133A168013974
:1053E000A160511C2160157062699A4216D0A38990
:1053F000DB0701D50A2D11D03846F8BD00F05EFB61
:105400000F4B9C42D4D17468D9E7B468D7E72146E2
:10541000304600F027F838B92369D7E721463046EF
:1054200000F0E6F90028E7D04FF0FF37E4E7214627
:10543000304600F0DDF90028F6D122680123CDE7DF
:1054400020F9030800F90308E0F8030810B4044C3D
:1054500003460A4620685DF8044B1946FFF79EBFD5
:10546000080000203C4B70B51D6806460C460DB187
:10547000AB69E3B1394B9C421FD0394B9C424DD0B4
:10548000384B9C4208BFEC68B4F90C3018079AB24C
:1054900019D5216911B312F001002FD00020A060AE
:1054A00060694042A06100292ED0002070BD2846CE
:1054B00000F004FB294B9C42DFD16C68B4F90C303E
:1054C00018079AB2E5D4D1063ED5520728D42169EF
:1054D00043F00803A3819AB20029DCD102F42070C2
:1054E000B0F5007FD7D02146304600F0C3FCB4F9B8
:1054F0000C3021699AB212F00100CFD1950758BF44
:105500006069A0600029D0D1120658BF0846CDD5E9
:1055100043F04003A3814FF0FF3070BDAC68B3E7A8
:10552000616B51B104F14402914204D03046FEF760
:10553000B1FFB4F90C300022626321690022C4E992
:10554000001223F02403C3E7092243F04003326032
:105550004FF0FF30A38170BD0800002020F9030840
:1055600000F90308E0F80308F0B5264C256885B07B
:10557000064605B36C681F2C41DCA6B1D5F888003F
:1055800048B3D0F8007140F824204FF0010C0CFA19
:1055900004FC00EB84024CEA0707022EC0F80071FD
:1055A000C2F8803010D0A31C01346C6045F8231081
:1055B000002005B0F0BD1448144D25600028D9D056
:1055C0000068C5F88800D5E7D0F8043143EA0C0339
:1055D000C0F80431E7E70E480191CDE9022370B12C
:1055E0004FF48470FEF79EFD48B10027C0E9407774
:1055F000DDE902236C680199C5F88800C3E74FF024
:10560000FF30D6E758090020DCF80308CC0800205A
:10561000254100082DE9F84FDFF8BCA0DAF800704A
:105620002DED028BE7B108EE100A89467D68D7F8A8
:1056300088806C1E14D407EB8506043608EB8505BC
:10564000B9F1000F10D0B8F1000F02D0EB6F4B454D
:105650000AD0013C631CA5F10405A6F10406EFD1B4
:10566000BDEC028BBDE8F88F7B683268013BA3423A
:1056700016BF00237C603360002AEAD0D7F804B05C
:10568000B8F1000F1AD0D8F80001012303FA04F191
:10569000014213D0D8F80401014218D155F8041C76
:1056A00018EE100A90477A685A450BD1DAF80030A4
:1056B000BB42CED01F46002FB8D1D1E790477A68C1
:1056C0005A45F3D0DAF80070002FAFD1C8E755F88B
:1056D000040C9047E7E700BF580900208B891A07A0
:1056E0002DE9F0410C4680463FD44A68002A58DD37
:1056F000E66A002E52D00022D8F80050C8F80020E8
:1057000013F4805251D10123216A4046B047431C13
:105710005ED0A389E66A5F0705D56368C01A636B2C
:105720000BB1236CC01A216A024600234046B047E1
:10573000411C3CD1D8F80030002B38D01D2B01D0B3
:10574000162B4DD123690022C4E90032616BC8F8E1
:10575000005019B304F14403994202D04046FEF7C9
:1057600099FE00206063BDE8F0810E69B6B10D6856
:105770000E609A070CBF4B690023AD1B8B600BE0DA
:105780002B463246216AA76A4046B847B0F1000C62
:10579000A5EB0C05664413DD002DF1DC0020BDE80F
:1057A000F0810A6C002AA3DCF8E7606DB3E7002300
:1057B000636023692360A389DB04C7D56065C5E7FF
:1057C000A38943F040034FF0FF30A381BDE8F0818F
:1057D000D8F80030002B9CD01D2B06D0162B04D0FF
:1057E000A38943F04003A381D9E7C8F80050D5E767
:1057F00038B50B69BBB10D46044608B18369B3B136
:105800000D4B9D4211D00D4B9D4213D00C4B9D4230
:1058100008BFE568B5F90C302BB129462046BDE834
:105820003840FFF75BBF002038BD6568F2E700F045
:1058300045F9E5E7A568EDE720F9030800F9030855
:10584000E0F8030838B540B303690446E3B1174BE9
:105850001D680DB1AB69CBB1154B9C420FD0154BF8
:105860009C4221D0144B9C4208BFEC68B4F90C3028
:1058700053B121462846BDE83840FFF72FBF6C687A
:10588000B4F90C30002BF4D1002038BD284600F0CC
:1058900015F9074B9C42E2D1F1E7084B084918681B
:1058A000BDE8384000F0C2BAAC68DFE7080000206D
:1058B00020F9030800F90308E0F80308D8F8030802
:1058C000F157000800207047014900F0AFBA00BF4F
:1058D000F15700080020704770B568224D1E02FB8A
:1058E00005F50E4605F17401FEF736FE044640B19B
:1058F00000210C30C4E90016A06005F16802FEF733
:1059000069FD204670BD00BF274B2DE9F0411E68A0
:10591000B369074653B348364FF00408D6E901345B
:10592000013B04D51EE05A1C04F168041AD0B4F9F6
:105930000C50013B002DF6D11C4B6566C4E90055A7
:10594000C4E90253C4E90455A5610822294604F1BB
:105950005C00FEF73FFDC4E90D55C4E91255204631
:10596000BDE8F08135682DB12E46D7E7304600F00E
:105970001FF8D0E74FF4D6713846FEF7EDFD044628
:1059800068B10560C0F804800C302946A060254647
:105990004FF4D072FEF71EFD34602E46BEE70C2396
:1059A00030603B60DBE700BFD8F803080100FFFF71
:1059B0002DE9F84F344B35491A68816290424FF017
:1059C0000003C0E91233036504BF01238361054668
:1059D000FFF79AFF68602846FFF796FFA860284601
:1059E000FFF792FF6F68E86000240423C7E90243D1
:1059F00008222146C7E90044C7E904447C66BC612B
:105A000007F15C00FEF7E6FCDFF88CB0AE68DFF86B
:105A10008CA0DFF88C90DFF88C801D4BC7F828A095
:105A2000C7E9087BC7F82C90C7F830800822F360DC
:105A3000C6E90044C6E904447466B460B461214612
:105A400006F15C00FEF7C6FCC6E9086BC6E90AA9C8
:105A5000C6F83080EE680F4BF360C6E90044C6E933
:105A600004447466B460B4612146082206F15C0007
:105A7000FEF7B0FC0123C6E9086BC6E90B98C6F82F
:105A800028A0AB61BDE8F88FD8F80308C958000812
:105A9000090001001200020089600008B1600008DE
:105AA000F160000811610008024B0349186800F01A
:105AB000BDB900BFD8F80308F1570008836903B9DE
:105AC00076E77047704700BF704700BF704700BF60
:105AD000704700BF024B0349186800F087B900BF48
:105AE00008000020C5580008024B0349186800F060
